:100000000C943C020C9464020C9464020C94DA0389
:100010000C9464020C9464020C94B4030C94640277
:100020000C9464020C9457140C9464020C946402B3
:100030000C9464020C9464020C9464020C946402A8
:100040000C9464020C9464020C9464020C94640298
:100050000C94640200000001010102020303030486
:100060000404050506060607070708080909090A22
:100070000A0A0B0B0C0C0C0D0D0D0E0E0F0F0F10B2
:100080001010111112121213131314141515151642
:10009000161617171818181919191A1A1B1B1B1CD2
:1000A0001C1C1D1D1E1E1E1F1F1F20202121212262
:1000B00022222323242424252525262627272728F2
:1000C000282829292A2A2A2B2B2B2C2C2D2D2D2E82
:1000D0002E2E2F2F30303031313132323333333412
:1000E0003434353536363637373738383939393AA2
:1000F0003A3A3B3B3C3C3C3D3D3D3E3E3F3F3F4032
:1001000040404141424242434343444445454546C1
:10011000464647474848484949494A4A4B4B4B4C51
:100120004C4C4D4D4E4E4E4F4F4F505051515152E1
:100130005252535354545455555556565757575871
:10014000585859595A5A5A5B5B5B5C5C5D5D5D5E01
:100150005E5E5F5FDB01CA01B901A80197018601FC
:100160007501640120202020205061636541646A8C
:100170007573743F002020205769647468204164BF
:100180006A7573743F00202045666665637420417C
:10019000646A7573743F00202020467265712E20BA
:1001A00041646A7573743F0020202054656D706F40
:1001B0002041646A7573743F002020204465707488
:1001C000682041646A7573743F0052616D705469B0
:1001D0006D652041646A7573743F0052616D704CA7
:1001E00065766C2041646A7573743F000102F0010A
:1001F00053706C69743A4220202020202020202057
:100200000053706C69743A41202020202020202067
:1002100020004D023C022B021A024C696E6B2053E7
:100220006C61766520556E69743F00446562756740
:10023000204D6F6465203F202020200052616E64B5
:100240006F6D34204D6F6465203F20200052616E39
:10025000646F6D33204D6F6465203F20200086025F
:1002600075026402507772204C65763A20486967BF
:100270006820202000507772204C65763A204C6F21
:10028000772020202000507772204C65763A204E4F
:100290006F726D616C20001E030D03FC02EB02DA2D
:1002A00002C902B802A70241646A757374204164EE
:1002B00076616E6365643F005265736574205365B3
:1002C0007474696E67733F200053617665205365CF
:1002D0007474696E67733F2020004D6F7265204F04
:1002E0007074696F6E733F20202000536574205036
:1002F0007772204C6576656C3F2020005365742032
:100300004173204661766F726974653F005365746E
:100310002053706C6974204D6F64653F20005374E6
:100320006172742052616D702055703F202000EC86
:1003300003E303DA03D103C803BF03B603AD03A489
:10034000039B0392038903800377036E0365035CB9
:100350000353035068617365332020005068617354
:100360006532202000506861736531202000546F91
:10037000726D656E7420004F726761736D2020008E
:10038000546F67676C6520200052616E646F6D3238
:10039000200052616E646F6D31200053706C69747F
:1003A00020202000417564696F332020004175646E
:1003B000696F32202000417564696F31202000523E
:1003C000687974686D202000496E74656E736520CD
:1003D00000436F6D626F20202000436C696D6220C6
:1003E0002020005374726F6B652020005761766582
:1003F0007320202000000000020000000000000028
:1004000000050400070000000000000000000000DC
:1004100000000000000102040810204080010204D6
:1004200008102040800102040810204080010204CE
:1004300008102040800202020202020202040404A8
:10044000040404040403030303030303030101017D
:1004500001010101010000390036003300300000C5
:10046000003B0038003500320000003A003700340D
:1004700000310000D206540711241FBECFE5D4E09E
:10048000DEBFCDBF11E0A0E6B0E0EEE4F1E302C0D4
:1004900005900D92AC36B107D9F722E0ACE6B1E099
:1004A00001C01D92A036B207E1F712E0CBE3D2E023
:1004B00004C02197FE010E94B517CA33D107C9F7BE
:1004C0000E9430170C949A180C940000E82F6130A9
:1004D00031F030F0623059F0633041F00895E0952A
:1004E000F0E0EC5AFF4F8491805A0895E095F0E0D7
:1004F000EC5AFF4F949180E6891B089561157105B0
:1005000079F0FB0101900020E9F73197AF01461B1C
:10051000570BDC01ED91FC910280F381E02D0994F1
:1005200090E080E00895CF92DF92EF92FF920F93D8
:100530001F93CF93DF938C01D62FFC0180810E9403
:10054000CE15C1E0892B09F4C0E0F80182818C1737
:1005500039F00E94A114F80161877287838794871C
:100560000E94A114F801C184D284E384F484AB0115
:10057000BC014C195D096E097F0987819085B0E047
:10058000A0E084179507A607B70770F481818C1740
:1005900059F0C1838C2FDF91CF911F910F91FF9064
:1005A000EF90DF90CF900895F801C283C1E0CD278E
:1005B000F1CF613091F028F0623001F1633049F100
:1005C0000895489FC001112495958795622F70E08A
:1005D0000E946017842F86950FC0489FC001112488
:1005E00097FD019695958795919581959109622F33
:1005F00070E00E946017842F860F0895489FC00105
:10060000112497FD0196959587959195819591096E
:10061000DDCF489FC001112495958795622F70E02A
:100620000E946017862F0895AB0160E0813009F0C9
:1006300061E088EB91E00C941114CF93DF93D82FF5
:100640008130D9F58DE10E9433159C0197FF02C0DE
:10065000295F3F4F63E0359527956A95E1F733278A
:100660002436310514F023E630E0C22FAFEFB3E0BB
:10067000A81BB90B20910F02309110020E94BB17EA
:100680005AE096958795779567955A95D1F7409159
:1006900013025091140220910B0230910C02420F70
:1006A000531F460F571F60E088EB91E00E94111422
:1006B0008C2F90E0DF91CF9108958CE10E9433154B
:1006C0009C0197FF02C0295F3F4F43E03595279576
:1006D0004A95E1F733272436310514F023E630E05C
:1006E000C22FAFEFB3E0A81BB90B20910D023091E0
:1006F0000E020E94BB17AB01BC018AE0769567959C
:10070000579547958A95D1F78091110290911202E1
:100710002091090230910A02820F931FBC01640FDD
:10072000751F8D2F0E941403C3CFF8941DBC1CBCF1
:100730001FBC1EBC8EB588608EBD8EB582608EBD1E
:100740001BBC1ABC89B7806189BF78940895F8945E
:1007500014BC85B5886085BD8AE085BD13BC89B7AA
:10076000806889BF789408951F920F920FB60F92F8
:1007700011248F9380911B02823061F0833039F015
:10078000813099F4C39AC29810921B0208C0C29A91
:10079000C398FACFC29AC39881E080931B028F91CD
:1007A0000F900FBE0F901F90189589B78F7E89BF4D
:1007B000C298EECF1F920F920FB60F9211248F9313
:1007C00080911C02823061F0833029F0813099F4ED
:1007D000C098C19A02C0C198C09A10921C0205C06C
:1007E000C198C09A81E080931C028F910F900FBE38
:1007F0000F901F90189589B78F7789BFC098C198BF
:10080000ECCF62E084E10E94641562E085E10E9421
:10081000641562E086E10E94641562E087E10E944F
:10082000641561E080E10C94A01561E084E10E9410
:10083000641561E085E10E94641561E086E10E9433
:10084000641561E087E10E94641560E080E10C942A
:10085000A015CF93DF9380E00E941D03D82F81E085
:100860000E941D03C82F89E10E9433159093020254
:100870008093010220E931E0A901481B590BCA010C
:100880009A013695279530930402209303026CE079
:1008900070E00E944C176A5F7F4F70930002609374
:1008A000FF010E94150440E060E080EA91E00E94B0
:1008B000DC1169E870E080EA91E00E94331640E0C4
:1008C00061E080EA91E00E94DC11DA3030F463EC00
:1008D00070E080EA91E00E9433164AE050E06D2F0C
:1008E00080EA91E00E94EA1663EC70E080EA91E011
:1008F0000E94331640E064E080EA91E00E94DC113F
:100900006BE870E080EA91E00E94331640E065E019
:1009100080EA91E00E94DC11CA3030F463EC70E0B0
:1009200080EA91E00E9433164AE050E06C2F80EAA2
:1009300091E00E94EA1663EC70E080EA91E00E9488
:100940003316DF91CF910C940104CF92DF92EF9296
:10095000FF920F931F9381E0809322021092210255
:100960000091130210911402C0900B02D0900C025F
:10097000C00ED11EF12CE12C00910F02109110023B
:100980008DE10E943315AFEFB3E0A81BB90B9801BE
:100990000E94BB178B019C014AE03695279517955D
:1009A00007954A95D1F70C0D1D1D2E1D3F1D52E0D8
:1009B00036952795179507955A95D1F7C80164E69E
:1009C00070E00E944C176115710511F461E070E050
:1009D000709308026093070210930C0200930B02BD
:1009E0000091110210911202C0900902D0900A02E7
:1009F000C00ED11EF12CE12C00910D0210910E02BF
:100A00008CE10E943315AFEFB3E0A81BB90B98013E
:100A10000E94BB178B019C018AE03695279517959C
:100A200007958A95D1F70C0D1D1D2E1D3F1D92E0D7
:100A300036952795179507959A95D1F7C80164E6DD
:100A400070E00E944C176115710511F461E070E0CF
:100A5000709306026093050210930A020093090244
:100A60004091230250E070E060E087ED91E00E9449
:100A7000101387ED91E01F910F91FF90EF90DF90A1
:100A8000CF900C94E012AF92BF92CF92DF92EF9290
:100A9000FF921F93CF93DF930E94150480EA91E0A9
:100AA0000E94D5116DE870E080EA91E00E94331653
:100AB00060910302709104024AE050E080EA91E004
:100AC0000E94F11641E060E080EA91E00E94DC11B2
:100AD00062E970E080EA91E00E9433166091FF01C4
:100AE000709100024AE050E080EA91E00E94F11625
:100AF00068E873E180E090E00E94D3140E9415043E
:100B000080EA91E00E94D5116BE970E080EA91E003
:100B10000E94331610E4CFEFD3E041E060E080EABA
:100B200091E00E94DC1161EC70E080EA91E00E94AB
:100B30007E0241E060E080EA91E00E94DC11409199
:100B4000130250911402C0900B02D0900C02C40EFC
:100B5000D51EF12CE12CA0900F02B09010028DE177
:100B60000E943315DE01A81BB90B95010E94BB172B
:100B7000AB01BC018AE076956795579547958A95B4
:100B8000D1F74C0D5D1D6E1D7F1D2AE030E080EA1F
:100B900091E00E94DD1641E068E080EA91E00E9469
:100BA000DC1161EC70E080EA91E00E947E0241E09D
:100BB00068E080EA91E00E94DC11409111025091BE
:100BC0001202C0900902D0900A02C40ED51EF12C68
:100BD000E12CA0900D02B0900E028CE10E94331522
:100BE000DE01A81BB90B95010E94BB17AB01BC012C
:100BF0009AE076956795579547959A95D1F74C0D5C
:100C00005D1D6E1D7F1D2AE030E080EA91E00E94AC
:100C1000DD1668EE73E080E090E00E94D31411507E
:100C200009F07BCF0E94010468EE73E080E090E061
:100C3000DF91CF911F91FF90EF90DF90CF90BF9009
:100C4000AF900C94D31460E086E891E00E94930288
:100C500081110CC0E0912702F0E0EE0FFF1FE45875
:100C6000FF4F0190F081E02D81E0099560E083E97C
:100C700091E00E94930281110CC0E0912702F0E004
:100C8000EE0FFF1FE458FF4F0190F081E02D82E04E
:100C9000099560E089E791E00E94930281110CC000
:100CA000E0912702F0E0EE0FFF1FE458FF4F0190A4
:100CB000F081E02D84E0099560E08CE691E00E94EF
:100CC0009302811111C081E0809327021092540297
:100CD000E0912702F0E0EE0FFF1FE458FF4F019074
:100CE000F081E02D80E009940895CF93DF938BE1AC
:100CF0000E943315EC010E94150441E060E080EA97
:100D000091E00E94DC1164EA70E080EA91E00E94C8
:100D10003316CE0167E070E00E9460174AE050E0B1
:100D200080EA91E00E94D61641E06BE080EA91E013
:100D30000E94DC116EEA70E080EA91E00E943316B6
:100D40000E94010468EE73E080E090E0DF91CF91B3
:100D50000C94D31461E080E00E94A01561E081E072
:100D60000E94A01561E082E00E94A01561E083E08E
:100D70000C94A015E82FF0E0E55EFD4F608388231A
:100D800019F0813051F0089550E05BBD4ABD1DBCA3
:100D90001CBC89B7806189BF089543BD14BC89B765
:100DA0008068F9CFCF92EF920F93CF93DF938BEEC2
:100DB00091E00E94ED1285EF91E00E94ED1281EE2C
:100DC00091E00E94ED1287ED91E00E94ED1283EC1C
:100DD00091E00E94ED128DEC91E00E94ED126CE02A
:100DE00070E088EB91E00E94341387E1C82E96E111
:100DF000E92E05E124E142E163E180EA91E00E940D
:100E00009112E3E9F1E084E180831182128213827E
:100E1000148215821682C2E3D0E0D087C783118680
:100E200012861386148662E00E946415E6E8F1E0FB
:100E300086E18083118212821382148215821682C7
:100E4000D087C783118612861386148662E00E94BB
:100E50006415E9E7F1E085E1808311821282138253
:100E6000148215821682D087C78311861286138654
:100E7000148662E00E946415ECE6F1E087E180836D
:100E8000118212821382148215821682D087C78340
:100E9000118612861386148662E0DF91CF910F913E
:100EA000EF90CF900C9464158DEC91E00E94DF12CE
:100EB00083EC91E00E94DF1287ED91E00E94DF1247
:100EC00081EE91E00E94DF1285EF91E00E94DF1237
:100ED0008BEE91E00C94DF12CF93C82F813108F094
:100EE000C1E10E942904EC2FF0E0EE0FFF1FE15D4D
:100EF000FC4F659174918CE392E00E9480180E94EF
:100F0000150440E068E080EA91E00E94DC116CE3A7
:100F100072E080EA91E00E943316809122028823D9
:100F200029F141E060E080EA91E00E94DC1164EB8D
:100F300070E080EA91E00E947E0241E069E080EA90
:100F400091E00E94DC1161E080EA91E00E94D912F8
:100F500062E080EA91E00E94D91265EC70E080EADC
:100F600091E00E947E02CF910C940104C950C330DD
:100F7000B0F440E06EE080EA91E00E94DC11609104
:100F800015024AE050E080EA91E00E94EA16609182
:100F900016024AE050E080EA91E00E94EA1641E041
:100FA00060E080EA91E00E94DC1163EC70E080EA8E
:100FB00091E00E947E0241E060E080EA91E00E94C0
:100FC000DC1161E080EA91E00E94D91241E061E029
:100FD00080EA91E00E94DC1163EC70E080EA91E02D
:100FE0000E947E0241E062E080EA91E00E94DC1112
:100FF00063EC70E080EA91E00E947E0241E062E0F2
:1010000080EA91E00E94DC1162E080EA91E00E94B7
:10101000D91241E063E080EA91E00E94DC116BECC0
:1010200070E080EA91E00E9433169DCF1F93CF932A
:10103000DF931F92CDB7DEB78130A1F0823019F176
:1010400080915502898389811981113108F011E15C
:10105000812F0E94A504812F0F90DF91CF911F91C6
:101060000C946C07809155028F5F62E10E944017DB
:1010700090935502809155028093150280915502FC
:1010800080931602DDCF809155028150EECF0E94F1
:10109000150480EA91E00E94D51169ED70E080EAC4
:1010A00091E00E94331641E060E080EA91E00E9406
:1010B000DC1167EE70E080EA91E00E947E0241E080
:1010C00066E080EA91E00E94DC1161E080EA91E054
:1010D0000E94D91241E068E080EA91E00E94DC11B0
:1010E00062E080EA91E00E94D9120E94010468EE59
:1010F00073E080E090E00C94D3140E94150480EA21
:1011000091E00E94D51168EF70E080EA91E00E94C2
:10111000331641E060E080EA91E00E94DC1167EE66
:1011200070E080EA91E00E947E0241E066E080EAA1
:1011300091E00E94DC1161E080EA91E00E94D91206
:1011400041E068E080EA91E00E94DC1162E080EA20
:1011500091E00E94D9120E94010468EE73E080E0E1
:1011600090E00C94D3140E94150480EA91E00E9450
:10117000D51166E071E080EA91E00E94331641E00B
:1011800060E080EA91E00E94DC1167EE70E080EAA6
:1011900091E00E947E0241E066E080EA91E00E94D8
:1011A000DC1161E080EA91E00E94D91241E068E040
:1011B00080EA91E00E94DC1162E080EA91E00E9406
:1011C000D9120E94010468EE73E080E090E00C9474
:1011D000D314CF93C82F0E94150480EA91E00E9497
:1011E000D51163E171E080EA91E00E9433164AE094
:1011F00050E06C2F80EA91E00E94EA1641E060E046
:1012000080EA91E00E94DC1167EE70E080EA91E0F4
:101210000E947E0241E066E080EA91E00E94DC11DB
:1012200061E080EA91E00E94D91241E068E080EA42
:1012300091E00E94DC1162E080EA91E00E94D91204
:101240000E94010468EE73E080E090E0CF910C947E
:10125000D314CF93C82F0E94150480EA91E00E9416
:10126000D5116FE171E080EA91E00E9433164AE007
:1012700050E06C2F80EA91E00E94EA1641E060E0C5
:1012800080EA91E00E94DC1167EE70E080EA91E074
:101290000E947E0241E066E080EA91E00E94DC115B
:1012A00061E080EA91E00E94D91241E068E080EAC2
:1012B00091E00E94DC1162E080EA91E00E94D91284
:1012C000C13009F158F0C23059F10E94010464EFB5
:1012D00071E080E090E0CF910C94D3148AE491E027
:1012E0009093100280930F0290930E0280930D0250
:1012F0008EE492E090931402809313029093120272
:1013000080931102E2CF8EE091E0909310028093DF
:101310000F0290930E0280930D028AE892E0EACFCA
:1013200088E092E09093100280930F0290930E0257
:1013300080930D0280E991E0DDCFCF93C82F0E940A
:10134000150480EA91E00E94D5116EE271E080EA16
:1013500091E00E9433164AE050E06C2F80EA91E061
:101360000E94EA1641E060E080EA91E00E94DC1110
:1013700067EE70E080EA91E00E947E0241E066E064
:1013800080EA91E00E94DC1161E080EA91E00E9435
:10139000D91241E068E080EA91E00E94DC1162E04D
:1013A00080EA91E00E94D9120E94010468EE73E085
:1013B00080E090E0CF910C94D314CF93DF93EC01B5
:1013C0000E94150480EA91E00E94D511BE0180EAD6
:1013D00091E00E94331641E060E080EA91E00E94D3
:1013E000DC1167EE70E080EA91E00E947E0241E04D
:1013F00066E080EA91E00E94DC1161E080EA91E021
:101400000E94D91241E068E080EA91E00E94DC117C
:1014100062E080EA91E00E94D912DF91CF910C94B2
:101420000104CF93823089F140F48823E1F08130C8
:1014300091F081E08093270239C08430D1F7C091C8
:101440005202C13071F148F1C230B1F183E0C330D2
:1014500029F189E023C0809152028F5F843009F422
:1014600080E080935202E0915202F0E0EE0FFF1F05
:10147000EE5EFD4F659174918CE392E00E948018BE
:101480008CE392E0CF910C94DD0980915202882385
:1014900011F08150E6CF83E0E4CF80E00E949D0907
:1014A000C8CF81E00E949D09C09327021092540288
:1014B00080E0CF910C94600A82E00E944305B9CF8E
:1014C00010922202823091F150F48823F1F08130A1
:1014D000A1F081E0809327021092540216C084305C
:1014E00069F18830B1F710922702809155020E946D
:1014F000A504809155020C946C07809154028F5F73
:10150000883009F480E080935402E0915402F0E0C6
:10151000EE0FFF1FE956FD4F659174918CE392E049
:101520000E9480188CE392E00C94DD0980915402B3
:10153000882311F08150E7CF87E0E5CFE091540296
:10154000E830A0F5F0E0E955F54F0C94B517730AB3
:10155000AF0AB70ABA0AC20ACA0ACD0AD00A82E09A
:10156000809327021092510280E00C94870B0E9416
:101570004708B9CF83E0809327021092530280E09E
:101580000C943A0B84E0809327021092520280E080
:101590000C94110A0E947D08A6CF0E94B308A3CF25
:1015A00085E08093270280E00C94D70A089582306A
:1015B00009F43AC060F4882331F18130E1F081E030
:1015C000809327021092540280E00C94600A8430C9
:1015D000B1F7E0915002E83008F040C0F0E0ED5083
:1015E000F54F0C94B5171C0B200B220B240B260B6C
:1015F000280B2A0B2C0B809150028F5F883009F446
:1016000080E080935002E0915002F0E0EE0FFF1F67
:10161000EC5AFE4F659174918CE392E00E94801821
:101620008CE392E00C94DD0980915002882311F044
:101630008150E7CF87E0E5CF80E00E94E908BFCF87
:1016400081E0FBCF82E0F9CF83E0F7CF84E0F5CFF4
:1016500085E0F3CF86E0F1CF87E0EFCF89E00E940D
:10166000E90881E0809327021092540280E00E94F2
:10167000600AA5CFCF93823071F140F48823C9F07E
:10168000813079F081E0809327023EC0843051F1AF
:101690008830C1F781E08093270280E0CF910C94DD
:1016A000600A809153028F5F833009F480E0809359
:1016B0005302E0915302F0E0EE0FFF1FE25AFD4F9C
:1016C000659174918CE392E00E9480188CE392E023
:1016D000CF910C94DD0990915302992341F38FEF40
:1016E000890FE5CFC0915302C13049F020F0C230DC
:1016F00049F682E001C080E00E942909C3CF81E061
:101700000E942909C093270210925402C6CF82304A
:1017100009F447C038F4882309F45CC0813091F1A2
:1017200081E051C08430E1F780912402882309F4DC
:1017300040C0809151028093150210925102109284
:101740002402EEEEF1E0659174918CE392E00E9448
:101750008018E0915102F0E0EE0FFF1FE15DFC4FB9
:101760006591749188E292E00E9480181092440280
:1017700068E272E08CE392E00E9487188CE392E0CA
:101780000C94DD09809151028F5F863009F480E06E
:101790008093510280912402882399F2ECEEF1E0CB
:1017A000D2CF80915102882311F08150F1CF85E092
:1017B000EFCF809151028093160281E08093240242
:1017C00099E090935502809327021092540280E092
:1017D0000C94600A81E08093240210925102DECFC3
:1017E000CF930E941504C0E041E06C2F80EA91E0A5
:1017F0000E94DC1160E080EA91E00E94D91264E668
:1018000070E080E090E00E94D314C0FD34C060E03E
:101810008DE00E94A01561E08EE00E94A015CF5FD0
:10182000C03111F764EF71E080E090E00E94D314C2
:1018300041E060E080EA91E00E94DC116CE371E03D
:1018400080EA91E00E94331669E471E080EA91E059
:101850000E9433160E94010460E08DE00E94A015F2
:1018600060E08EE00E94A01564EF71E080E090E0FF
:10187000CF910C94D31461E08DE00E94A01560E03C
:10188000CBCF0E94150480EA91E00E94D51140E080
:1018900060E080EA91E00E94DC116EE471E080EA91
:1018A00091E00E9433160E9401040E94F00B60E058
:1018B0008DE00E94A01560E08EE00E94A0150E94BD
:1018C00075060E94150480EA91E00E94D5110E94DD
:1018D0000104809155020C946C07CF9360E088E17D
:1018E0000E94641560E089E10E94641560E08AE16D
:1018F0000E94641560E08BE10E94641560E08CE159
:101900000E94641560E08DE10E94641560E08EE144
:101910000E94641560E08FE10E94641561E080E040
:101920000E94641561E081E00E94641561E082E03C
:101930000E94641561E083E00E94641561E084E028
:101940000E94641561E085E00E94641561E086E014
:101950000E94641561E087E00E9464150E94AA0657
:1019600061E080E10E94641561E081E10E946415FC
:1019700061E082E10E94641561E083E10E946415E8
:1019800061E084E10E94641561E085E10E946415D4
:1019900061E086E10E94641561E087E10E946415C0
:1019A00060E088E00E94641561E089E00E946415AF
:1019B00060E08AE00E94641560E08BE00E9464159C
:1019C00061E08CE00E94641561E08DE00E94641586
:1019D00061E08EE00E94641561E08FE00E94641572
:1019E0001092550210922702109254021092500247
:1019F000109251021092530210925202C1E0C09311
:101A000024020E94150420E042E060E180EA91E0B7
:101A10000E94F51144E750E060E080EA91E00E9406
:101A2000B11244E650E061E080EA91E00E94B11218
:101A30004CE650E062E080EA91E00E94B1120E9420
:101A400001040E94410C10920C0210920B021092A1
:101A50000A02109209028AE491E0909310028093A6
:101A60000F0290930E0280930D028EE492E0909309
:101A700014028093130290931202809311026FEF6D
:101A800073E088EB91E00E94E8136FEF73E088EB5E
:101A900091E00E94E81360E080E00E94A01560E001
:101AA00081E00E94A01560E082E00E94A01560E045
:101AB00083E00E94A015C0932602C09325020E94D5
:101AC00095030E94A70382E38093230210922102D0
:101AD000C093220242E350E060E070E087ED91E0C5
:101AE0000E94101387ED91E00E94E01248EE53E04F
:101AF00060E070E081EE91E00E94101381EE91E0D1
:101B00000E94E01246E050E060E070E08BEE91E071
:101B10000E94101346E050E060E070E085EF91E035
:101B20000E9410138BEE91E00E94E01285EF91E08D
:101B30000E94E01210921F0210921D0210921902D0
:101B40001092170280915502E5E1F2E080838091C6
:101B500055028183CF9108952F923F924F925F92C9
:101B60006F927F928F929F92AF92BF92CF92DF92AD
:101B7000EF92FF920F931F93CF93DF9300D000D08B
:101B8000CDB7DEB70E94230680912702811102C0E3
:101B90000E94290480912202882309F487C087EDDE
:101BA00091E00E941613882309F480C0409123021B
:101BB00050E070E060E087ED91E00E9410130E9419
:101BC000150441E060E080EA91E00E94DC1164EBE2
:101BD00070E080EA91E00E947E0241E069E080EAE4
:101BE00091E00E94DC1161E080EA91E00E94D9124C
:101BF00062E080EA91E00E94D91265EC70E080EA30
:101C000091E00E947E0241E066E080EA91E00E945D
:101C1000DC11809121028A3030F463EC70E080EABC
:101C200091E00E94331660910B0270910C024AE021
:101C300050E080EA91E00E94F1160E940104809138
:101C400021028F5F8093210220910B0230910C02C0
:101C50004091070250910802241B350B30930C026F
:101C600020930B022091090230910A024091050253
:101C700050910602241B350B30930A02209309026F
:101C8000843680F010922202109221028091550237
:101C90000E946C0710920C0210920B0210920A0222
:101CA0001092090287ED91E00E94E01280915502A6
:101CB0008A3069F581EE91E00E941613882339F18C
:101CC00020E43FE140E050E068E873E180E090E02C
:101CD0000E941117AB01BC0181EE91E00E9410132C
:101CE00025E030E040E050E060E070E0CB010E9491
:101CF000111760931502809115028093160280914E
:101D000055020E946C0781EE91E00E94E0122BEEDA
:101D100031E03C832B8310E000E054E5E52EFF2406
:101D2000F39464EC262E312C75E0472EE6E08E2EDF
:101D3000912C502EF801EB5EFD4FE081EE3008F063
:101D400073C0F0E0EA55F14F0C94B517B70E350F9C
:101D5000690FA90F011024109E109E10140F140F6C
:101D6000140F140FAA10E71001E010E0E2CF8B81EE
:101D70009C810E941613882309F456C0C801895E0D
:101D80009D4F3C01DC01EC919801275E3D4F6901BC
:101D9000D9013C918091010290910202B4010E940C
:101DA0004C17AB014A5F5F4F24EC6E2F832F0E94CC
:101DB000D902482F50E070E060E08B819C810E9446
:101DC0001013F801E35EFD4FFA83E9836081980107
:101DD000215E3D4F5901D9018C910E946602482F26
:101DE00062E0802F0E94BA06F50180818F5F8083B8
:101DF0008081811108C0A981BA818C9190E00196FF
:101E0000837099278C93F601808190E00196B1014F
:101E10000E94601780838081D301882309F493C0D6
:101E20008B819C810E94E0122B813C81265F3F4F79
:101E30003C832B830130110509F096CF0F900F9052
:101E40000F900F90DF91CF911F910F91FF90EF9026
:101E5000DF90CF90BF90AF909F908F907F906F90CA
:101E60005F904F903F902F9008958B819C810E94AE
:101E700016138823C9F246E050E060E070E08B81E1
:101E80009C810E941013F801E35EFD4F6F01808179
:101E900040EF63E0811161E0852D0E94BA06F801F0
:101EA000E15EFD4F808190E00196609103027091A8
:101EB00004026F5F7F4F0E944C17808380818111E5
:101EC000AFCFD6018C9190E00196817099278C93C9
:101ED000A7CF8B819C810E941613882309F4A4CF7D
:101EE00089E10E943315B4010E944C17AB014A5F8F
:101EF0005F4FF801E95EFD4F5F0180819801275E29
:101F00003D4F6901D9018C91489FC0011124B10155
:101F10000E946017461B50E070E060E08B819C815E
:101F20000E94101342E862E0802F0E94BA06F60178
:101F3000808190E00196B1010E94601780838081CA
:101F400081116ECFD5018C9190E001968370992715
:101F5000BECF8B819C810E941613882309F464CF25
:101F60002091010230910202B9E1B29FC001B39FFA
:101F7000900D1124B7010E944C176B5F462F50E063
:101F800070E060E08B819C810E941013F801E35E99
:101F9000FD4F6F0180819801215E3D4F590140E066
:101FA00060E080FD07C06081D9018C910E946602CB
:101FB000482F62E0852D0E94BA06F501208130E0AD
:101FC0002F5F3F4F4091010250910202FFE5F49FC5
:101FD000C001F59F900D1124B7010E944C176B5F53
:101FE00070E0C9010E946017D5018C938C9181111A
:101FF00017CFF601808190E0019683709927808346
:102000000FCF8B819C810E941613882309F40CCF7B
:102010002091010230910202F1E4F29FC001F39F8E
:10202000900D1124B7010E944C176B5F462F50E0B2
:1020300070E060E08B819C810E94101342E862E0B6
:10204000852D0E94BA06ECCE8B819C810E941613CE
:10205000882309F4E9CE2091010230910202429EC8
:10206000C001439E900D1124B7010E944C176B5F75
:10207000462F50E070E060E08B819C810E9410133D
:102080009801235E3D4F6901D9018C9140E060E0E9
:1020900080FD08C0F801E95EFD4F808144EB80FFC0
:1020A00046E462E0852D0E94BA06F801E15EFD4F2C
:1020B0002081A0900102B090020230E02F5F3F4FDC
:1020C000C50143E0880F991F4A95E1F7B7010E94C7
:1020D0004C176E5F70E0C9010E9460178083808199
:1020E000811107C0F601808190E0019683709927E5
:1020F0008083F801E75EFD4F208130E02F5F3F4F86
:102100004A9CC0014B9C900D1124B7010E944C17B2
:102110006B5F70E088EE93E00E946017C9010E9437
:10212000601780838081F801E95EFD4F811178CED0
:10213000808190E001968170992761CF8B819C818D
:102140000E941613882309F46FCE47E050E060E048
:1021500070E070CF8B819C810E941613882309F454
:1021600063CE47E050E060E070E08B819C810E948C
:1021700010139801235E3D4F6901D9018C9140E015
:1021800060E080FD02C042E862E0852D0E94BA0650
:10219000F801E15EFD4F208130E02F5F3F4F40911D
:1021A000010250910202BFE5B49FC001B59F900D9E
:1021B0001124B7010E944C176B5F70E0C9010E94A7
:1021C00060178083808181112BCEF601B1CF8B8186
:1021D0009C810E941613882309F426CE20910102C7
:1021E00030910202FFE3F29FC001F39F900D112492
:1021F000B7010E944C17695F462F50E070E060E025
:102200008B819C810E9410139801235E3D4F5901E0
:10221000D9016C91F801E15EFD4F6F0180810E9450
:102220006602482F62E0802F0E94BA06D6018C9188
:102230008F5F8C938C91811107C0F501808190E0B4
:102240000196837099278083F801E75EFD4F8081B6
:1022500090E00196B1010E946017D1CE90E080E03D
:1022600008950895CF93DF93EC0160E08E810E9482
:10227000A01581E090E00E940C1561E08E810E9423
:10228000A01581E090E00E940C1560E08E810E9414
:10229000A01584E690E0DF91CF910C940C15CF92BD
:1022A000DF92EF92FF920F931F93CF93DF936C0116
:1022B0007C0187E0E80EF11CD0E0C0E0062F10E0C2
:1022C000B8010C2E02C0759567950A94E2F761700B
:1022D000F70181917F010E94A0152196C430D1059C
:1022E00079F7C601DF91CF911F910F91FF90EF9089
:1022F000DF90CF900C943211CF92DF92EF92FF9249
:102300000F931F93CF93DF936C017C0187E0E80E5E
:10231000F11CD0E0C0E0062F10E0B8010C2E02C086
:10232000759567950A94E2F76170F70181917F01D5
:102330000E94A0152196C830D10579F7C601DF911A
:10234000CF911F910F91FF90EF90DF90CF900C9461
:1023500032111F93CF93DF93EC01162F642F8C81E2
:102360000E94A0158D818F3F19F060E00E94A0159A
:102370008F85612F84FF06C0CE01DF91CF911F9121
:102380000C947C1170E084E0759567958A95E1F76F
:10239000CE010E944F11612FCE01DF91CF911F918D
:1023A0000C944F1140E00C94A91161E00E94D211ED
:1023B00080ED97E00C940C15443008F043E0FC01EC
:1023C0002389421710F04FEF420FFC01E40FF11D7B
:1023D0002489620F60680C94D211FC016089262F59
:1023E0002460208B6C600C94D2110F931F93CF93B9
:1023F000DF93EC01423018F08F8588608F874B8B1C
:102400001C8A80E48D8B6E8B605C6F8B222329F09D
:10241000413019F48F8584608F8761E08C810E9440
:1024200064158D818F3F19F061E00E94641561E0B1
:102430008E810E9464158E0198012C1B3D0B8F85A7
:1024400084FD0DC084E090E00F5F1F4F281739070F
:102450004CF461E0F80186810E946415EDCF88E0BC
:1024600090E0F2CF80E593EC0E940C1560E08C8147
:102470000E94A01560E08E810E94A0158D818F3F83
:1024800019F060E00E94A0156F8564FD33C063E021
:10249000CE010E944F1184E991E10E940C1563E086
:1024A000CE010E944F1184E991E10E940C1563E076
:1024B000CE010E944F1186E990E00E940C1562E067
:1024C000CE010E944F116F856062CE010E94D21131
:1024D00084E0888BCE010E94ED11CE010E94D511BF
:1024E00082E0898B66E0CE01DF91CF911F910F9141
:1024F0000C94D2116062CE010E94D21184E991E164
:102500000E940C156F856062CE010E94D21186E98F
:1025100090E00E940C156F856062CE010E94D2117E
:10252000D2CFCF92EF920F93FC011382128283E6F7
:1025300091E09183808364838FEF85834683278333
:102540000087E186C286138614861586168617864E
:1025500020E041E060E1CF010F91EF90CF900C942B
:10256000F511EF92FF920F931F93CF93DF938C019E
:102570007A01677088E0689FB00111246064C80127
:102580000E94D211E701A8E0EA0EF11C6991D8017E
:10259000ED91FC910190F081E02DC8010995CE15D7
:1025A000DF05A1F7DF91CF911F910F91FF90EF9081
:1025B000089541E00E94A91181E090E008950895F6
:1025C000CF93DF93EC01E881F98109956A837B83DE
:1025D0008C839D83DF91CF9108954FEF5FEFBA0118
:1025E000FC01468357836087718721EA34E1318398
:1025F00020830C94E0120F931F93CF93DF93EC0191
:10260000E881F98109950A811B812C813D81601B3C
:10261000710B820B930BDF91CF911F910F91089556
:10262000FC01468357836087718708950F931F933A
:10263000CF93DF93EC010E94FB1241E00E811F81DA
:1026400028853985601771078207930708F440E0F1
:10265000842FDF91CF911F910F9108958FB90000C2
:10266000779BFECF8FB10895CF93DF93EC01862F38
:102670006883798391E09E8361E00E94641561E044
:1026800088810E94A0150E9425148AE090E0988716
:102690008F838FEF93E09A878987DF91CF91089599
:1026A000CF92DF92EF92FF920F931F93CF93DF931E
:1026B000EC017B0188819E8160E09923A1F00E945A
:1026C000A0158F2D0E942E138E2D0E942E1361E0D7
:1026D0008881DF91CF911F910F91FF90EF90DF9054
:1026E000CF900C94A0150E94A0150FE010E0CC2410
:1026F000C394D12CC601002E02C0880F991F0A94E2
:10270000E2F78E219F2161E0892B09F460E08A8144
:102710000E94A01561E08C810E94A01560E08C8170
:102720000E94A0150150110928F7D1CF0F931F93D4
:10273000CF93DF938C01FC0191858285D0E0C0E0CE
:1027400077FD06C0C92FD82F6C177D070CF4EB015D
:1027500060E0F80180810E94A015BE01660F771F1E
:10276000660F771F7069C8010E94501361E0F8017D
:102770008081DF91CF911F910F910C94A0150F9341
:102780001F93CF93DF938C01FC0191858285D0E06C
:10279000C0E077FD06C0C92FD82F6C177D070CF459
:1027A000EB0160E0F80180810E94A015BE01660F78
:1027B000771F660F771F706AC8010E94501361E08F
:1027C000F8018081DF91CF911F910F910C94A0159A
:1027D0000F931F93CF93DF938C01FC01918582852A
:1027E000D0E0C0E077FD06C0C92FD82F6C177D0759
:1027F0000CF4EB0160E0F80180810E94A015BE019D
:10280000660F771F660F771F706FC8010E94501305
:1028100061E0F8018081DF91CF911F910F910C94BD
:10282000A0159C01962FBA01913061F01CF49923F8
:1028300031F00895913419F0923421F00895C901CE
:102840000C949613C9010C94BF13CF93CFB7F8948F
:1028500080915602811123C0E9E3F4E08491E9E11B
:10286000F4E09491E82FF0E0EE0FFF1FE759FB4FE3
:10287000A591B491EC91E92321F461E084E00E94F8
:10288000A01561E084E00E9464156C9A6E9A61E084
:1028900087E00E94641561E085E00E9464158091E4
:1028A00056028F5F80935602CFBFCF9108951F923B
:1028B0000F920FB60F9211242F933F938F939F93F4
:1028C000AF93BF9380915C0290915D02A0915E02F4
:1028D000B0915F0230915B0226E0230F2D3768F143
:1028E00029E8230F0396A11DB11D20935B0280935D
:1028F0005C0290935D02A0935E02B0935F028091B0
:10290000570290915802A0915902B0915A02019633
:10291000A11DB11D8093570290935802A0935902B4
:10292000B0935A02BF91AF919F918F913F912F9198
:102930000F900FBE0F901F9018950296A11DB11D0C
:10294000D4CF2FB7F89460915C0270915D028091B2
:102950005E0290915F022FBF08953FB7F894809177
:10296000570290915802A0915902B0915A0222B791
:1029700008B600FE05C02F3F19F00196A11DB11D3C
:102980003FBFBA2FA92F982F8827BC01CD01620F16
:10299000711D811D911D43E0660F771F881F991FD0
:1029A0004A95D1F708958F929F92AF92BF92CF929E
:1029B000DF92EF92FF926B017C010E94AD144B01FC
:1029C0005C01C114D104E104F104E9F00E943F1755
:1029D0000E94AD14681979098A099B09683E734001
:1029E0008105910570F321E0C21AD108E108F108D0
:1029F00088EE880E83E0981EA11CB11CC114D1047E
:102A0000E104F10429F7FF90EF90DF90CF90BF90A1
:102A1000AF909F908F900895000000008330910543
:102A200028F0880F991F05970197F1F7089578947A
:102A300083B7836083BF83B7886483BF89B78160AE
:102A400089BF82E08EBD8EB581608EBD8FB58160FD
:102A50008FBD85B5846085BD85B5806485BD86E8FC
:102A600086B91AB80895883020F0873108F487E1D4
:102A700088512091880090E4299F9001112487704B
:102A8000822B87B9369A3699FECF84B195B10895D5
:102A9000843059F028F4813099F0823089F008951B
:102AA000853039F0873041F008958FB58F778FBD2D
:102AB00008958FB58F7DFBCF85B58F7D85BD08953A
:102AC00083B78F7D83BF0895CF93DF9390E0FC01A0
:102AD000EB5EFB4F24918B5C9B4FFC018491882320
:102AE000C9F090E0880F991FFC01E759FB4FA591B1
:102AF000B491FC01E15AFB4FC591D49161110DC015
:102B00009FB7F8948C91209582238C9388812823F9
:102B100028839FBFDF91CF910895623051F49FB712
:102B2000F8943C91822F809583238C93E8812E2BFF
:102B3000EFCF8FB7F894EC912E2B2C938FBFEACF69
:102B40001F93CF93DF93282F30E0F901EB50FC4F18
:102B50008491F901EB5EFB4FD491F901EB5CFB4FE3
:102B6000C491CC23A9F0162F81110E944815EC2F97
:102B7000F0E0EE0FFF1FE15AFB4FA591B4918FB724
:102B8000F894EC91111108C0D095DE23DC938FBF2F
:102B9000DF91CF911F910895DE2BF8CFCF93DF9374
:102BA000282F30E0F901EB50FC4F8491F901EB5EE6
:102BB000FB4FD491F901EB5CFB4FC491CC23A1F006
:102BC00081110E944815EC2FF0E0EE0FFF1FEB5A29
:102BD000FB4FA591B491EC91ED2381E090E009F4D5
:102BE00080E0DF91CF91089580E090E0FACFAF923E
:102BF000BF92CF92DF92EF92FF920F931F93CF93EA
:102C0000DF936C017B018B01040F151FEB015E014B
:102C1000AE18BF08C017D10759F06991D601ED91E0
:102C2000FC910190F081E02DC6010995892B79F77F
:102C3000C501DF91CF911F910F91FF90EF90DF9031
:102C4000CF90BF90AF900895FB0101900020E9F76D
:102C50003197AF01461B570BDC01ED91FC910280CF
:102C6000F381E02D09946115710511F00C9424167F
:102C700090E080E00895DC01ED91FC910190F081FD
:102C8000E02D09948F929F92AF92BF92EF92FF92A4
:102C90000F931F93CF93DF93CDB7DEB7A1970FB6F6
:102CA000F894DEBF0FBECDBF7C01FA01CB0119A2A3
:102CB000223008F42AE08E010F5D1F4F822E912CE6
:102CC000B12CA12CBF01A50194010E947417F90138
:102CD000CA016A300CF5605DD8016E938D01232B1B
:102CE000242B252B79F790E080E0109721F0BD018F
:102CF000C7010E942416A1960FB6F894DEBF0FBE3E
:102D0000CDBFDF91CF911F910F91FF90EF90BF90BA
:102D1000AF909F908F900895695CDECFCF92DF9245
:102D2000EF92FF920F931F93CF93DF9321153105FD
:102D300081F4DC01ED91FC910190F081E02D642F94
:102D4000DF91CF911F910F91FF90EF90DF90CF9087
:102D500009942A30310501F52AE077FF1DC06A0188
:102D60007B01EC016DE20E943B168C014427552744
:102D7000BA014C195D096E097F092AE0CE010E9453
:102D80004216800F911FDF91CF911F910F91FF90FD
:102D9000EF90DF90CF900895DF91CF911F910F9129
:102DA000FF90EF90DF90CF900C9442169A01AB0108
:102DB000770F660B770B0C948E162115310541F4B5
:102DC000DC01ED91FC910190F081E02D642F0994DC
:102DD0000C9442169A01462F50E070E060E00C948B
:102DE000DD169A01AB0170E060E00C94DD16CF9225
:102DF000DF92EF92FF926B017C01C114D104E104D8
:102E0000F10441F00E942818A70196010E9496172C
:102E10006B017C01C701B601FF90EF90DF90CF906E
:102E20000895CF92DF92EF92FF926B017C01C21660
:102E3000D306E406F50664F4CA01B9016C197D09EC
:102E40008E099F090E94F716C60ED71EE81EF91EAE
:102E5000C701B601FF90EF90DF90CF9008950895DD
:102E60000E9417150E942F170E946D0CC0E0D0E041
:102E70000E94AC0D2097E1F30E940000F9CF089565
:102E8000991B79E004C0991F961708F0961B881FBC
:102E90007A95C9F780950895AA1BBB1B51E107C01D
:102EA000AA1FBB1FA617B70710F0A61BB70B881FDA
:102EB000991F5A95A9F780959095BC01CD01089569
:102EC00097FB072E16F4009407D077FD09D00E94D7
:102ED0004C1707FC05D03EF4909581959F4F0895BF
:102EE000709561957F4F0895A1E21A2EAA1BBB1B16
:102EF000FD010DC0AA1FBB1FEE1FFF1FA217B307C6
:102F0000E407F50720F0A21BB30BE40BF50B661FDB
:102F1000771F881F991F1A9469F76095709580959F
:102F200090959B01AC01BD01CF010895052E97FB43
:102F30001EF400940E94AD1757FD07D00E9474172D
:102F400007FC03D04EF40C94AD1750954095309586
:102F500021953F4F4F4F5F4F089590958095709505
:102F600061957F4F8F4F9F4F0895EE0FFF1F059084
:102F7000F491E02D09940E94CD17B7FF0895821BAC
:102F8000930B08950E94CD17A59F900DB49F900DAF
:102F9000A49F800D911D11240895A29FB001B39F9D
:102FA000C001A39F700D811D1124911DB29F700D52
:102FB000811D1124911D08958F929F92AF92BF920F
:102FC000CF92DF92EF92FF92CF93DF93EC01688173
:102FD00079818A819B81611571058105910521F4B3
:102FE00064E279ED8BE597E02DE133EF41E050E0CD
:102FF0000E94961749015A019B01AC01A7EAB1E46E
:103000000E94C2176B017C01ACEEB4EFA5019401E4
:103010000E949518C60ED71EE81EF91EF7FE06C0C0
:1030200081E0C81AD108E10880E8F80AC882D9828C
:10303000EA82FB82C701B6019F77DF91CF91FF90B3
:10304000EF90DF90CF90BF90AF909F908F900895BA
:103050008F929F92AF92BF92CF92DF92EF92FF92A8
:1030600060916000709161008091620090916300B6
:10307000611571058105910521F464E279ED8BE517
:1030800097E02DE133EF41E050E00E9496174901AF
:103090005A019B01AC01A7EAB1E40E94C2176B017F
:1030A0007C01ACEEB4EFA50194010E949518C60E08
:1030B000D71EE81EF91EF7FE06C081E0C81AD10827
:1030C000E10880E8F80AC0926000D0926100E092C6
:1030D0006200F0926300C701B6019F77FF90EF9006
:1030E000DF90CF90BF90AF909F908F9008956093A6
:1030F0006000709361008093620090936300089574
:10310000FB01DC0105900D920020E1F70895FB0121
:10311000DC010D900020E9F7119701900D9200203D
:10312000E1F70895B7FF0C94C2170E94C217821BE3
:10313000930B089512E0CBE3D2E004C0FE010E949D
:0E314000B5172196CC33D107C9F7F894FFCF0D
:10314E00010000000204081F1F0804020804021FE9
:10315E001F020408000A1F1F1F0E04001608600A33
:10316E00870B3A0B110AD70A01410042004D413A32
:10317E002000456E765370643A200044414320543B
:10318E0065737400426174746572793A200025206B
:10319E002020200052616D703A2020202020202017
:1031AE0020202020003D4D6F6465002053656C6526
:1031BE006374204D6F6465200043616C6C20536115
:1031CE00766520466176005072657373202020204C
:1031DE00206F72204F4B200043616C6C2053617640
:1031EE0065205365740043616C6C205273742053D8
:1031FE0065740043616C6C20536574204164004318
:10320E00616C6C20536574205077724C760043616C
:10321E006C6C20536574204D724F700053656C6654
:10322E0054657374204F4B2000302E3934004446C1
:10323E0044333132206279204D617274696E000020
:0C324E00000000D912F7152E11311100FC
:00000001FF
